S014000061737369676E6D656E745F322E7372656346
S11300000C94E7020C9404030C9404030C9404036E
S11300100C9404030C943E030C9404030C94040306
S11300200C9404030C9404030C9404030C94040330
S11300300C9404030C9404030C9404030C94040320
S11300400C9459100C9404030C9404030C940403AE
S11300500C946C0F0C942A0F0C9404030C9404035A
S11300600C9404030C9404030C9404030C940403F0
S11300700C9404030C9404030C940403B7B7B7B7AB
S1130080B7B7B7B7B7B7B7B7B7B7B7B7B7B7B7B7FC
S1130090B7B7B7B7B7B7B7B7B7B7B7B7B7B7B7B7EC
S11300A0B7B7B70A003A20202020202020202020A3
S11300B0202020202020202020202020202020203C
S11300C0202020202020202020202020202020202C
S11300D02020202020202020203A0A003A2020201E
S11300E0202020202020202020202020202020200C
S11300F020202020202020202020202020202020FC
S113010020202020202020202020202020202020EB
S11301103A0A003A2020205C5F5F5F5F7C20205C0D
S11301205F5F5F2F20207C5F7C207C5F7C207C5F76
S11301307C207C5F2E5F5F2F2020205C5F5F5F2F21
S11301402020285F2920203A0A003A20207C207CA5
S11301505F5F5F20207C20285F29207C207C207C1E
S1130160207C207C207C207C207C207C5F29207CBF
S1130170207C20285F29207C207C5F7C20203A0A78
S1130180003A20207C207C2020202020202F205F6B
S1130190205C20207C20275F2060205F205C2020C2
S11301A07C20275F205C2020202F205F205C2020E3
S11301B07C207C20203A0A003A2020202F205F5FF8
S11301C05F7C2020205F5F5F202020205F205F5F16
S11301D0205F5F5F2020207C207C5F5F2020202028
S11301E0205F5F5F2020207C207C20203A0A003A98
S11301F0202020205F5F5F5F2020202020202020FF
S11302002020202020202020202020202020205FAB
S11302102020202020202020202020202020205F9B
S11302202020203A0A003A202020202020202020CC
S113023020202020202020202020202020202020BA
S113024020202020202020202020202020202020AA
S1130250202020202020202020203A0A003A20209C
S1130260202020202020202020202020202020208A
S1130270202020202020202020202020202020207A
S1130280202020202020202020202020202020206A
S1130290203A0A00B7B7B7B7B7B7B7B7B7B7B7B762
S11302A0B7B7B7B7B7B7B7B7B7B7B7B7B7B7B7B7DA
S11302B0B7B7B7B7B7B7B7B7B7B7B7B7B7B7B7B7CA
S11302C0B7B7B7B7B7B7B70A005072657373206191
S11302D020627574746F6E206F72202773272F2726
S11302E0532720746F2073746172742061206E65CB
S11302F0772067616D650047414D45204F56455253
S11303000043535345323031302F3732303120419E
S113031032206279205279616E204368656E202D07
S113032020343830323633383300205C2424202003
S1130330205C242420202020205C24202020202035
S11303405C24242020205C24242020202020202021
S11303505C24242020205C242420205C24242424C5
S1130360242424205C242420202020202020205CFD
S1130370242424242424007C20242420207C2024BD
S113038024202020205C2424242020207C202424B9
S113039020207C2024242020202020207C20242491
S11303A020207C202424205C242420202020205C65
S11303B07C202424202020202020205C2424202091
S11303C020202424007C20242420207C2024242079
S11303D020205C242420242420207C202424202069
S11303E07C2024242020202020207C202424202041
S11303F07C2024247C2024242424242424247C20BD
S113040024242020202020207C2024245F5F2F20EF
S11304102424007C20242424242424242420205C38
S113042024245C20202424207C2024242424242408
S1130430245C2020202020207C2024242424242404
S113044024247C2024242020202024247C202424D0
S11304502020205C24247C20242420207C2024248C
S1130460007C202424202020202424205C24245CBC
S1130470202F202024247C202424202020202424F5
S11304802020202020207C202424202020202424FC
S11304907C20202424242424245C7C202024242440
S11304A02424245C7C20202424242424245C007C14
S11304B02024245F5F7C2024247C202424202020EA
S11304C07C2024247C2024245F5F7C20242420207E
S11304D0202020207C2024245F5F7C202424202FC3
S11304E02020202020205C20202F202020202020BD
S11304F05C20202F2020202020205C007C20202431
S113050024242424245C7C2024242020207C2024D3
S1130510247C20242424242424245C20202020201F
S1130520207C20242420207C20242420205F5F5F42
S11305305F5F5F202020205F5F5F5F5F5F20202080
S1130540205F5F5F5F5F5F00202F2020202020203E
S11305505C207C20205C2020207C20205C7C2020CF
S113056020202020205C202020202020207C2020EF
S11305705C20207C20205C0020205F5F5F5F5F5F49
S11305802020205F5F20202020205F5F20205F5FED
S11305905F5F5F5F5F2020202020202020205F5F9E
S11305A0202020205F5F001B5B3F323568001B5B0F
S11305B03F32356C001B5B25646D001B5B4B001BDD
S11305C05B324A001B5B25643B2564480000112410
S11305D01FBECFEFD8E0DEBFCDBF16E0A0E0B1E094
S11305E0EEE2FCE202C005900D92A83BB107D9F7F8
S11305F028E0A8EBB6E001C01D92A237B207E1F7EC
S11306000E94660E0C9415160C940000E8E6F0E0C7
S11306108081826080838BB382608BBBECE6F0E0E8
S113062080818F6080831092B80608958091B80607
S1130630181614F58091B9066FB7F89491E009C0C3
S1130640F901E754F94F4081F901E854F94F408327
S11306509F5F292F30E04091B806042E000C550B03
S1130660241735076CF39091B80691509093B8060F
S113067066231CF4789408958FEF08951F920F92C7
S11306800FB60F9211242F933F934F938F939F9301
S1130690EF93FF9343B14F7080E026C09091B8066A
S11306A094300CF5242F30E0082E02C035952795A0
S11306B00A94E2F720FF17C02091BD0630E0082E0F
S11306C002C0359527950A94E2F720FD0CC0E0910D
S11306D0B80691E09E0F9093B8060E2E000CFF0B07
S11306E0E754F94F80838F5F8430C0F24093BD0696
S11306F0FF91EF919F918F914F913F912F910F9087
S11307000FBE0F901F9018951F93CF93DF93182F50
S1130710D4E036C0CE3011F44FEF01C040E02C2FAE
S113072030E0205E3F4F211B3109ED2FF0E0BF0187
S11307306250710981E090E0DC0102C0AA0FBB1F86
S11307406A95E2F7BD016150710926233723339777
S113075002C0880F991FEA95E2F701972817390715
S113076029F4CE3010F44FE001C040EF6D2F8C2FF0
S11307700E94670ACF5F01C0CBE0C03158F2DF5F4F
S1130780D830D0F3DF91CF911F9108951F93CF9369
S1130790DF93CDB7DEB728970FB6F894DEBF0FBE50
S11307A0CDBF0E94A30A10E031C0E12FF0E0EC5D60
S11307B0FB4F908180E021C0282F30E0492F50E08A
S11307C0082E02C0559547950A94E2F740FF0DC0E4
S11307D0843010F44FE001C040EFE1E0F0E0EC0FB2
S11307E0FD1FE20FF31F408307C0E1E0F0E0EC0FD0
S11307F0FD1FE20FF31F10828F5F8830E8F2BE0105
S11308006F5F7F4F812F0E94860A1F5F103168F24D
S113081080E00E94840328960FB6F894DEBF0FBED2
S1130820CDBFDF91CF911F910895CF93DF93CDB7C3
S1130830DEB728970FB6F894DEBF0FBECDBF0E9477
S1130840A30A80E009C0E1E0F0E0EC0FFD1FE80F2F
S1130850F11D9FEF90838F5F8830A8F3BE016F5F17
S11308607F4F8DE00E94860A80E009C0E1E0F0E05D
S1130870EC0FFD1FE80FF11D95E590838F5F883025
S1130880A8F3BE016F5F7F4F8CE00E94860ABE0111
S11308906F5F7F4F8EE00E94860A80E009C0E1E02E
S11308A0F0E0EC0FFD1FE80FF11D91E190838F5FE5
S11308B08830A8F3BE016F5F7F4F8BE00E94860AE9
S11308C0BE016F5F7F4F8FE00E94860A28960FB6A5
S11308D0F894DEBF0FBECDBFDF91CF91089590E0B5
S11308E025C0813051F4292F30E0F901EA5AFA4F3A
S11308F04081F901E55FFE4F4083823051F4292F96
S113090030E0F901EB52FB4F4081F901E55FFE4F06
S11309104083833051F4292F30E0F901EC5AFB4F26
S11309204081F901E55FFE4F40839F5F9138C8F233
S113093008958FEF87B980E881B9E091C106F091FD
S1130940C206CF016AE070E00E942B129C01992339
S113095024F422273327281B390BCF016AE070E0E7
S11309600E942B12CB01992324F488279927861BF4
S1130970970B6AE070E00E942B12BC014091BE0606
S113098091E0941B9093BE0690910001992391F1FC
S1130990FF2394F08091BE06811107C03327F9012B
S11309A0EF5FFE4F808188B91AC07727FB01EF5FA4
S11309B0FE4F808188B913C0E73FFF4F74F08091E8
S11309C0BE06811107C03327F901EF5FFE4F808116
S11309D088B905C080E488B902C080E488B98091F0
S11309E0BE06813021F482B1805882B9089582B163
S11309F012B8089518B808959C0140E050E060E4EE
S1130A0072E48FE090E00E943F12C9010895CF92F2
S1130A10DF92EF92FF926B017C01BA0180E090E0DB
S1130A200E943011A70196010E94BE1120E030E01F
S1130A3048EC52E40E948F100E940111CB01FF90F8
S1130A40EF90DF90CF900895CF93DF93811107C08B
S1130A5080E193E09093CB068093CA061AC081305C
S1130A6039F48AEB92E09093CB068093CA0611C0C6
S1130A70823039F48EE692E09093CB068093CA06D6
S1130A8008C0833031F48BE092E09093CB068093DE
S1130A90CA066B3069F480E090E0A0E0B0E4809393
S1130AA0CF069093D006A093D106B093D2063BC054
S1130AB06C3069F480E090E0A0E2B1E48093CF066A
S1130AC09093D006A093D106B093D2062CC06D307B
S1130AD069F480E090E0A8E4B2E48093CF069093B8
S1130AE0D006A093D106B093D2061DC06E3069F42F
S1130AF080E090E0A4EBB2E48093CF069093D0061C
S1130B00A093D106B093D2060EC06F3061F480E09A
S1130B1090E0A4ECB2E48093CF069093D006A09327
S1130B20D106B093D2068091CA069091CB060E945A
S1130B30FC04EC016091CF067091D0068091D1063F
S1130B409091D206AE010E94070520E12AB92197AF
S1130B50D0938900C0938800009729F410928B00E9
S1130B6010928A0005C0019790938B0080938A00AD
S1130B7083E2809380008AE180938100DF91CF91AA
S1130B80089562E170E080E090E00E94F10F8091AE
S1130B90C2068F938091C1068F9384E394E09F9360
S1130BA08F930E94E1120F900F900F900F90089571
S1130BB063E170E080E090E00E94F10F8091C00654
S1130BC08F938091BF068F9384E494E09F938F93D7
S1130BD00E94E1120F900F900F900F90089564E01F
S1130BE070E08AE090E00E94F10F84E992E09F9324
S1130BF08F930E94F71265E070E08AE090E00E9413
S1130C00F10F8DE592E09F938F930E94F71266E0B7
S1130C1070E08AE090E00E94F10F86E292E09F93F8
S1130C208F930E94F71267E070E08AE090E00E94E0
S1130C30F10F8FEE91E09F938F930E94F71268E07B
S1130C4070E08AE090E00E94F10F88EB91E09F93BE
S1130C508F930E94F71269E070E08AE090E00E94AE
S1130C60F10F81E891E09F938F930E94F7126AE05D
S1130C7070E08AE090E00E94F10F8AE491E09F9393
S1130C808F930E94F7126BE070E08AE090E00E947C
S1130C90F10F83E191E09F938F930E94F7126CE030
S1130CA070E08AE090E00E94F10F8CED90E09F9359
S1130CB08F930E94F7126DE070E08AE090E00E944A
S1130CC0F10F85EA90E09F938F930E94F7126EE0F4
S1130CD070E08AE090E00E94F10F8CE790E09F932F
S1130CE08F930E94F7128DB79EB746960FB6F8946D
S1130CF09EBF0FBE8DBF0895CF93DF93C4E0D0E0B5
S1130D0008C0BE018AE090E00E94F10F0E940B101F
S1130D102196CF30D105ACF3DF91CF9108950E9495
S1130D2015041092CE061092CD0680E007C0E82F7D
S1130D30F0E0EC52F94F9FE090838F5F8138B8F375
S1130D401092C2061092C1060E94C1050E94D805E5
S1130D508FEF87B980E881B90895CF93C82F80E0D9
S1130D600BC090915507891731F0E82FF0E0EC5251
S1130D70F94F9FE090838F5F813898F38091CC0680
S1130D8095EF980F953008F011C2C1117DC0909174
S1130D90D306933009F078C0E0915507F0E0EC52A7
S1130DA0F94F2081203F51F48091C1069091C206F1
S1130DB001979093C2068093C10666C0692F660F9F
S1130DC040EF0E94670A6091D306660F6F5F40EFA1
S1130DD08091CC060E94670AE0915507F0E0EC523E
S1130DE0F94F80EF80836091CC068C2F0E942405FC
S1130DF08091CC068D3009F58091BF069091C00694
S1130E0001969093C0068093BF06039764F0809187
S1130E10C1069091C20604969093C2068093C106BF
S1130E200E94EF0531C08091C1069091C2060396DD
S1130E309093C2068093C10627C08C3011F08E3087
S1130E4081F48091C1069091C20602969093C206E5
S1130E508093C1061092C0061092BF060E947C06C1
S1130E6013C08B3011F08F3079F48091C1069091CA
S1130E70C20601969093C2068093C1061092C006E2
S1130E801092BF060E947C06C13009F083C0809195
S1130E90D306823009F07EC0E0915507F0E0EC52B1
S1130EA0F94F9081903F51F48091C1069091C20610
S1130EB001979093C2068093C1066CC0682F660F99
S1130EC040EF8091CC060E94670A6091D306660FBA
S1130ED06F5F40EF8091CC060E94670AE09155074E
S1130EE0F0E0EC52F94F80EF80836091CC068C2FB8
S1130EF00E9424058091CC068D3029F58091BF068F
S1130F009091C006039764F08091C1069091C20647
S1130F1004969093C2068093C1060E94EF0509C00F
S1130F208091C1069091C20603969093C206809365
S1130F30C1068091BF069091C00601969093C006A9
S1130F408093BF0627C08C3011F08E3081F48091DD
S1130F50C1069091C20602969093C2068093C10680
S1130F601092C0061092BF060E947C0613C08B30FC
S1130F7011F08F3079F48091C1069091C2060196E8
S1130F809093C2068093C1061092C0061092BF06C9
S1130F900E947C06C23009F083C08091D306813060
S1130FA009F07EC0E0915507F0E0EC52F94F9081D2
S1130FB0903F51F48091C1069091C206019790939D
S1130FC0C2068093C1066CC0682F660F40EF809103
S1130FD0CC060E94670A6091D306660F6F5F40EFEC
S1130FE08091CC060E94670AE0915507F0E0EC522C
S1130FF0F94F80EF80836091CC068C2F0E942405EA
S11310008091CC068D3029F58091BF069091C00661
S1131010039764F08091C1069091C2060496909360
S1131020C2068093C1060E94EF0509C08091C106E3
S11310309091C20603969093C2068093C106809154
S1131040BF069091C00601969093C0068093BF0698
S113105027C08C3011F08E3081F48091C1069091BC
S1131060C20602969093C2068093C1061092C006EF
S11310701092BF060E947C0613C08B3011F08F3093
S113108079F48091C1069091C20601969093C206AC
S11310908093C1061092C0061092BF060E947C067F
S11310A0C33009F090C08091D30681118CC0E091C7
S11310B05507F0E0EC52F94F9081903F51F4809144
S11310C0C1069091C20601979093C2068093C1060F
S11310D07AC0682F660F40EF8091CC060E94670AA1
S11310E06091D306660F6F5F40EF8091CC060E943B
S11310F0670AE0915507F0E0EC52F94F80EF8083E6
S11311006091CC068C2F0E9424058091CC068D30F2
S113111029F58091BF069091C006039764F08091F1
S1131120C1069091C20604969093C2068093C106AC
S11311300E94EF0509C08091C1069091C2060396F2
S11311409093C2068093C1068091BF069091C00619
S113115001969093C0068093BF0635C08C3011F081
S11311608E3081F48091C1069091C20602969093CC
S1131170C2068093C1061092C0061092BF060E9458
S11311807C0621C08B3011F08F30E9F48091C106C8
S11311909091C20601969093C2068093C106109264
S11311A0C0061092BF060E947C060DC08091C10645
S11311B09091C20601979093C2068093C106109243
S11311C0C0061092BF060E94C1050E94D805CF91A7
S11311D00895DF92EF92FF920F931F93CF93DF93C3
S11311E0C0E075C08FE08C1B4091CD065091CE06B7
S11311F0480F511D9A01ADECBCEC0E9480127C0199
S1131200F694E794F694E79480E88E1508F462C0A7
S1131210C7019701220F331F220F331F820F931F21
S11312204817590709F052C0D0E04DC09701332741
S1131230F901E55FFE4F808190E00D2E02C0959587
S113124087950A94E2F780FF3DC0CB3051F0CF3050
S113125051F0CC3051F0CE3051F0CD3051F40FEF8D
S113126009C001E107C001E105C005E503C005E5CA
S113127001C000E0F901EC52F94F80818F30A9F4EC
S1131280CF3099F41092C0061092BF068091C10627
S11312909091C20601979093C2068093C1060E9462
S11312A0C1050E94D8050E947C06402F1D2F110FF6
S11312B0612F8C2F0E94670A61E0610F402F8C2FF1
S11312C00E94670ADF5FD43008F4B0CFCF5FC0312B
S11312D008F488CF0091CD061091CE060F5F1F4F02
S11312E01093CE060093CD06C0E1F801EC0FF11D7A
S11312F09F01ADECBCEC0E948012AC015695479561
S113130056954795423808F045C0CA019A01220F04
S1131310331F220F331F820F931FE817F90711F0B1
S1131320CF5FE3CF5527FA01E55FFE4FD081DF7031
S113133099F12DC08D2F90E00C2E02C095958795C4
S11313400A94E2F780FF21C08091BF069091C00605
S1131350039774F043E11C2F110F612F80E00E946A
S1131360670A61E0610F43E180E00E94670A0DC0F3
S113137041E01C2F110F612F80E00E94670A61E099
S1131380610F41E080E00E94670ACF5F01C0C0E0C6
S1131390C43080F2C0E071C0CF5FA7CF8FE08C1B58
S11313A04091CD065091CE06480F511D9A01ADECE7
S11313B0BCEC0E94801296958795969587959C0122
S11313C0220F331F220F331F820F931F4817590711
S11313D009F052C09A010E9480128C01169507955B
S11313E01695079500935507013808F045C0D0E0DD
S11313F040C098013327F901E55FFE4F808190E0FA
S11314000D2E02C0959587950A94E2F780FF30C0AF
S11314108091BF069091C0060397A4F0F901EC52A5
S1131420F94F8081803F71F04CE3FD2EFF0C6F2D4E
S11314308C2F0E94670A61E06F0D4CE38C2F0E9491
S1131440670A12C0F901EC52F94F7F014081DD2E89
S1131450DD0C6D2D8C2F0E94670A61E06D0DF70184
S113146040818C2F0E94670AD093D306C093CC0688
S1131470DF5FD43008F4BDCFCF5FC03108F48ECF26
S11314800E94C1050E94D805DF91CF911F910F9151
S1131490FF90EF90DF900895CF938091CD069091C7
S11314A0CE068538924048F480E00BC040E06C2FB3
S11314B080E00E94670ACF5F01C0C0E0C830B0F38B
S11314C081E0CF91089580E80E94BF0F08951F9393
S11314D0CF93DF938031B0F46830A0F4142FC62F7B
S11314E0D82F81E00E94EB0F6C2F677080E1689F1A
S11314F0900111248D2F8F70822B0E94EB0F812F6E
S11315000E94EB0FDF91CF911F9108950F931F93CA
S1131510CF938031A0F48B01C82F83E00E94EB0F9E
S11315208C2F8F700E94EB0FC0E007C0F801EC0F06
S1131530F11D80810E94EB0FCF5FC830B8F3CF91CB
S11315401F910F9108958FE00E94EB0F08958091F1
S11315500D04823049F0833061F0813079F487EDF5
S113156095E00E941D13089582EF95E00E941D13DB
S113157008958BE096E00E941D13089587E296E09B
S11315800E941D1308950E94630A0E94060340E00E
S113159060E07BE480E090E00E94D70E0E9433106C
S11315A00E947E100E948C10789408954F925F924E
S11315B06F927F928F929F92AF92BF92CF92DF925F
S11315C0EF92FF92CF93DF930E9402100E942A10A1
S11315D00E9402100E94211085E20E94141064E00F
S11315E070E08AE090E00E94F10F88E795E09F9315
S11315F08F930E94F71265E070E08AE090E00E9409
S1131600F10F88E495E09F938F930E94F71266E0B0
S113161070E08AE090E00E94F10F8CEF94E09F93D9
S11316208F930E94F71267E070E08AE090E00E94D6
S1131630F10F8FEA94E09F938F930E94F71268E072
S113164070E08AE090E00E94F10F81E694E09F93BD
S11316508F930E94F71269E070E08AE090E00E94A4
S1131660F10F83E194E09F938F930E94F7126AE055
S113167070E08AE090E00E94F10F85EC93E09F9384
S11316808F930E94F7126BE070E08AE090E00E9472
S1131690F10F87E793E09F938F930E94F7126CE01A
S11316A070E08AE090E00E94F10F8AE293E09F9359
S11316B08F930E94F7126EE070E08AE090E00E943F
S11316C0F10F81E093E09F938F930E94F71266E1FC
S11316D070E080E090E00E94F10F0E940B1086E41D
S11316E096E00E941D1364E170E080E090E00E94A7
S11316F0F10F0E940B100E94A70A0E94C6030E94C9
S113170049104B015C0188EE93E090935707809356
S113171056078DB79EB744960FB6F8949EBF0FBE7A
S11317208DBFD0E00E941E0F882309F4AAC08091C7
S11317306C0890916D080E94A312C82F843711F091
S11317408435E1F580910C048F5F80930C04843020
S113175018F081E080930C0480910C040E946F04C3
S113176080910C04813069F466E170E080E090E0DF
S11317700E94F10F0E940B1086E496E00E941D1354
S11317801DC0823069F466E170E080E090E00E9460
S1131790F10F0E940B1080E696E00E941D130EC00C
S11317A0833061F466E170E080E090E00E94F10F24
S11317B00E940B1089E796E00E941D13C133A1F427
S11317C081E080930D0488EE93E090935707809313
S11317D0560764E170E080E090E00E94F10F0E94FF
S11317E00B100E94A70A2BC0C233A1F482E080939D
S11317F00D0484EF91E0909357078093560764E1BA
S113180070E080E090E00E94F10F0E940B100E94B3
S1131810A70A15C0C33399F483E080930D048AEFBB
S113182090E0909357078093560764E170E080E05E
S113183090E00E94F10F0E940B100E94A70ACD367F
S113184011F0CD34F9F49091C30681E08927809397
S1131850C306882369F061E170E080E090E00E94B3
S1131860F10F0E940B1084E996E00E941D130AC038
S113187061E170E080E090E00E94F10F0E940B10A3
S113188001C0CFEFC337B1F1C335A1F10E941603F4
S11318908F3F81F50E9449106B017C012B013C01B3
S11318A0481859086A087B08209156073091570751
S11318B0ADECBCEC0E948012969587959695879521
S11318C0A0E0B0E084159505A605B70508F02ACF79
S11318D08D2F0E9484038D2F90E001968F71907854
S11318E0992324F40197806E9F6F0196D82F4601A7
S11318F0570118CFDF91CF91FF90EF90DF90CF90F9
S1131900BF90AF909F908F907F906F905F904F901B
S113191008952F923F924F925F926F927F928F928F
S11319209F92AF92BF92CF92DF92EF92FF920F936A
S11319301F93CF93DF93CDB7DEB728970FB6F894F4
S1131940DEBF0FBECDBF1C0188E0ECE1F4E0DE0198
S1131950119601900D928A95E1F7C12CD12C53C0B8
S11319600E9449102B013C010E9449104B015C016B
S11319700E94A30A37C0F601EE0FFF1F21E030E0FA
S11319802C0F3D1FE20FF31F80819181F701EE0FB1
S1131990FF1FEE0FFF1FEE0FFF1FE00FF11FEE0FF3
S11319A0FF1FE80FF91F80819181019729F44FEF00
S11319B0602F8E2D0E94670A0F5F1F4F02C000E048
S11319C010E008301105BCF23FEFE31AF30A02C03D
S11319D0E12CF12C4AE0E416F1048CF30E94491046
S11319E04B015C01C101880F991FA3019201280FCB
S11319F0391F411D511D82169306A406B50640F3F6
S1131A003FEFC31AD30A44E0C416D1040CF4A8CFA0
S1131A100E94A30A28960FB6F894DEBF0FBECDBF6E
S1131A20DF91CF911F910F91FF90EF90DF90CF90B6
S1131A30BF90AF909F908F907F906F905F904F90EA
S1131A403F902F9008950E94021080915607909124
S1131A5057070E94890C0E948F0664E170E080E0C1
S1131A6090E00E94F10F0E94A70A0E9416030E94B0
S1131A70250F08958F929F92AF92BF92CF92DF92DB
S1131A80EF92FF92CF9383E081B90E9449106B01DA
S1131A907C01DCC08091BF069091C0068130910525
S1131AA021F482B1846082B913C08230910521F49B
S1131AB082B18C6082B90CC08330910524F082B16C
S1131AC08C6182B905C0892B19F482B1837E82B9F5
S1131AD00E9499040E941E0F882309F459C0809122
S1131AE06C0890916D080E94A312C82F803711F0E2
S1131AF0803509F59091C40681E089278093C40656
S1131B00882371F060E170E080E090E00E94F10FC2
S1131B108BEA96E00E941D1382B1826082B90BC0E9
S1131B2060E170E080E090E00E94F10F0E940B10F1
S1131B3082B18D7F82B9CD3611F0CD34F1F490911C
S1131B40C30681E089278093C306882369F061E195
S1131B5070E080E090E00E94F10F0E940B1084E995
S1131B6096E00E941D1315C061E170E080E090E0F2
S1131B700E94F10F0E940B100CC08091C3068823B1
S1131B8041F0CE3611F0CE3421F40E94E90801C0B0
S1131B90CFEF8091C406811159C0C13611F0C13410
S1131BA021F483E00E94AD0617C0C33711F0C3359A
S1131BB021F482E00E94AD060FC0C43611F0C43493
S1131BC021F481E00E94AD0607C0C63611F0C63488
S1131BD019F480E00E94AD060E941603C82F8111FB
S1131BE003C080E00E94AD06C13019F481E00E9478
S1131BF0AD06C23019F482E00E94AD06C33019F478
S1131C0083E00E94AD060E9449104B015C01809163
S1131C10C30681111BC02091560730915707ADECC4
S1131C20BCEC0E9480129695879596958795A7019E
S1131C309601280F391F411D511D82169306A406D3
S1131C40B50620F00E94E908750164010E944C0A5F
S1131C50882309F41FCFCF91FF90EF90DF90CF90AE
S1131C60BF90AF909F908F9008956EE070E08AE0EF
S1131C7090E00E94F10F87EF92E09F938F930E9470
S1131C80F7126FE070E08AE090E00E94F10F89ECB7
S1131C9092E09F938F930E94F7120F900F900F90F2
S1131CA00F900E941E0F882351F080916C08909130
S1131CB06D080E94A312833731F0833521F00E940E
S1131CC016038F3F71F30E94D60A08950E94C30A37
S1131CD00E94D60A0E94230D0E943A0D0E94350EDE
S1131CE0F9CFCF93C82F8A3019F48DE00E94710E7A
S1131CF09FB7907802C0992329F1809159078F3FAB
S1131D00D1F3F894E091580781E08E0F809358073F
S1131D10F0E0E65AF84FC083809159078F5F8093B3
S1131D205907809158078F3F11F410925807E1EC3E
S1131D30F0E0808180628083992339F0789480E098
S1131D4090E005C081E090E002C080E090E0CF9197
S1131D50089580916B088823E1F32FB72078F894D5
S1131D608091590830916B0890E0831B91095AF4D3
S1131D70E091590880916B08F0E0E81BF109E659FD
S1131D80F74F80810AC0E091590880916B08F0E018
S1131D90E81BF109E65AF74F808190916B08915046
S1131DA090936B08222309F0789490E008951092A0
S1131DB05807109259071092590810926B08109204
S1131DC06A084093C506DC01CB01880F991FAA1F3E
S1131DD0BB1F880F991FAA1FBB1F9C01AD01220FB7
S1131DE0331F441F551F60E072E18AE790E00E94B0
S1131DF06112BA01A9014F5F5F4F6F4F7F4FDB0143
S1131E00CA011AF40196A11DB11DB595A795979520
S1131E10879501979093C5008093C400E1ECF0E0AE
S1131E2088E18083808180688083ECE6F8E08EE03E
S1131E3094E09383828391838083089590916B08C7
S1131E4081E0911101C080E0089510925908109228
S1131E506B0808951F920F920FB60F9211242F93BF
S1131E608F939F93EF93FF9380915907882329F1D0
S1131E70809158072091590790E0821B91095AF4E8
S1131E80E091580780915907F0E0E81BF109E75AFF
S1131E90F74F90810AC0E091580780915907F0E00C
S1131EA0E81BF109E65AF84F908180915907815057
S1131EB0809359079093C60005C0E1ECF0E080815F
S1131EC08F7D8083FF91EF919F918F912F910F9040
S1131ED00FBE0F901F9018951F920F920FB60F927E
S1131EE011242F933F934F935F936F937F938F931B
S1131EF09F93AF93BF93CF93EF93FF93C091C6008B
S1131F008091C506882349F0809159078F3F29F0B5
S1131F1060E070E08C2F0E94710E80916B0880311C
S1131F2020F081E080936A0818C0CD3009F4CAE03B
S1131F30E091590881E08E0F80935908F0E0E65A49
S1131F40F74FC08380916B088F5F80936B088091FB
S1131F505908803111F410925908FF91EF91CF91F3
S1131F60BF91AF919F918F917F916F915F914F91AD
S1131F703F912F910F900FBE0F901F90189594B121
S1131F80906B94B995B1906195B990E59CBD8830FA
S1131F9021F0803211F0823019F491E09DBD01C02E
S1131FA01DBC803269F028F4883071F0803161F012
S1131FB00EC0803429F0803851F48CB581608CBD1A
S1131FC08CB582608CBD03C08CB581608CBD85B13D
S1131FD08F7E85B908958EBD0DB407FEFDCF8EB5F5
S1131FE008959F938F937F936F9384EC95E09F93D1
S1131FF08F930E94F7120F900F900F900F900F90F5
S11320000F9008958FEB95E09F938F930E94F712A2
S11320100F900F9008958BEB95E09F938F930E9400
S1132020F7120F900F9008951F928F9385EB95E010
S11320309F938F930E94F7120F900F900F900F9021
S113204008958EEA95E09F938F930E94F7120F9064
S11320500F90089587EA95E09F938F930E94F7125B
S11320600F900F9008951092C6061092C706109212
S1132070C8061092C90616BC8CE787BD92E094BDD1
S113208083E085BDEEE6F0E080818260808395BBCD
S113209008958FB7282F2078F8946091C606709120
S11320A0C7068091C8069091C906222309F0789446
S11320B008951F920F920FB60F9211248F939F933E
S11320C0AF93BF938091C6069091C706A091C806AE
S11320D0B091C9060196A11DB11D8093C6069093C7
S11320E0C706A093C806B093C906BF91AF919F914C
S11320F08F910F900FBE0F901F901895109285002E
S1132100109284008AB180618AB983E2809380004E
S11321108AE18093810008951092B20008950E948C
S1132120A3100C9484110E947D1158F00E94761122
S113213040F029F45F3F29F00C946D1151110C9477
S1132140B8110C9473110E94951168F39923B1F39B
S1132150552391F3951B550BBB27AA2762177307C9
S1132160840738F09F5F5F4F220F331F441FAA1F5D
S1132170A9F335D00E2E3AF0E0E832D09150504019
S1132180E695001CCAF72BD0FE2F29D0660F771FC7
S1132190881FBB1F261737074807AB07B0E809F0AD
S11321A0BB0B802DBF01FF2793585F4F3AF09E3F32
S11321B0510578F00C946D110C94B8115F3FE4F361
S11321C0983ED4F3869577956795B795F7959F5F75
S11321D0C9F7880F911D9695879597F90895E1E0C1
S11321E0660F771F881FBB1F621773078407BA0720
S11321F020F0621B730B840BBA0BEE1F88F7E0957B
S113220008950E949D1188F09F5798F0B92F99273F
S1132210B751B0F0E1F0660F771F881F991F1AF0CD
S1132220BA95C9F714C0B13091F00E94B711B1E06A
S113223008950C94B711672F782F8827B85F39F069
S1132240B93FCCF3869577956795B395D9F73EF466
S113225090958095709561957F4F8F4F9F4F08950E
S1132260E89409C097FB3EF490958095709561952C
S11322707F4F8F4F9F4F9923A9F0F92F96E9BB27E2
S11322809395F695879577956795B795F111F8CF5E
S1132290FAF4BB0F11F460FF1BC06F5F7F4F8F4FC9
S11322A09F4F16C0882311F096E911C0772321F0BF
S11322B09EE8872F762F05C0662371F096E8862F57
S11322C070E060E02AF09A95660F771F881FDAF7AE
S11322D0880F9695879597F9089597F99F6780E8F1
S11322E070E060E008959FEF80EC089500240A9464
S11322F01616170618060906089500240A941216DD
S11323001306140605060895092E0394000C11F40F
S1132310882352F0BB0F40F4BF2B11F460FF04C0BC
S11323206F5F7F4F8F4F9F4F089557FD9058440F15
S1132330551F59F05F3F71F04795880F97FB991F20
S113234061F09F3F79F087950895121613061406DD
S1132350551FF2CF4695F1DF08C01616170618066A
S1132360991FF1CF86957105610508940895E89445
S1132370BB2766277727CB0197F908950E94D111CF
S11323800C9484110E94761138F00E947D1120F083
S1132390952311F00C946D110C94731111240C9469
S11323A0B8110E94951170F3959FC1F3950F50E0F9
S11323B0551F629FF001729FBB27F00DB11D639FF3
S11323C0AA27F00DB11DAA1F649F6627B00DA11D99
S11323D0661F829F2227B00DA11D621F739FB00D3F
S11323E0A11D621F839FA00D611D221F749F3327AF
S11323F0A00D611D231F849F600D211D822F762F48
S11324006A2F11249F5750409AF0F1F088234AF024
S1132410EE0FFF1FBB1F661F771F881F9150504090
S1132420A9F79E3F510580F00C946D110C94B811DE
S11324305F3FE4F3983ED4F3869577956795B79517
S1132440F795E7959F5FC1F7FE2B880F911D969531
S1132450879597F9089597FB072E16F4009407D0F3
S113246077FD09D00E948F1207FC05D03EF49095A9
S113247081959F4F0895709561957F4F0895A1E2CE
S11324801A2EAA1BBB1BFD010DC0AA1FBB1FEE1FEA
S1132490FF1FA217B307E407F50720F0A21BB30B35
S11324A0E40BF50B661F771F881F991F1A9469F7B1
S11324B060957095809590959B01AC01BD01CF010D
S11324C00895052E97FB1EF400940E94781257FD80
S11324D007D00E943F1207FC03D04EF40C947812EC
S11324E050954095309521953F4F4F4F5F4F08953C
S11324F090958095709561957F4F8F4F9F4F08956C
S1132500A29FB001B39FC001A39F700D811D112430
S1132510911DB29F700D811D1124911D0895AA1B58
S1132520BB1B51E107C0AA1FBB1FA617B70710F0BA
S1132530A61BB70B881F991F5A95A9F780959095EC
S1132540BC01CD010895CF93DF93EC012B8120FFD3
S113255033C026FF0AC02F7B2B838E819F81019677
S11325609F838E838A8190E029C022FF0FC0E88177
S1132570F9818081082E000C990B009719F42062D0
S11325802B831AC03196F983E8830EC0EA85FB8554
S1132590099597FF09C02B81019611F080E201C0D3
S11325A080E1822B8B8308C02E813F812F5F3F4FB8
S11325B03F832E83992702C08FEF9FEFDF91CF9146
S11325C00895A0E0B0E0E7EEF2E10C94EE15AE0160
S11325D04B5F5F4FFA0161917191AF0180916E0879
S11325E090916F080E944D13E2E00C940A16A0E04B
S11325F0B0E0EDEFF2E10C94EC15AE01495F5F4FF2
S1132600DA016D917D91AD010CE618E0F80182814B
S11326109381DC0113962C911397286013962C93C5
S11326200E944D13D8011296ED91FC9113972381CA
S1132630277F2383E4E00C9408160F931F93CF9312
S1132640DF93E0916E08F0916F08238121FF1BC096
S11326508C01D0E0C0E0F80181918F0160916E0897
S113266070916F08DB011896ED91FC9119978823FE
S113267031F00995892B79F3DFEFCFEFECCF8AE0C6
S11326800995892B19F08FEF9FEF02C08D2F9C2F96
S1132690DF91CF911F910F910895ABE0B0E0E3E596
S11326A0F3E10C94DE156C017B018A01FC011782B5
S11326B01682838181FFCCC1CE0101963C01F601D3
S11326C09381F70193FD859193FF81917F01882385
S11326D009F4BAC1853239F493FD859193FF819150
S11326E07F01853229F4B60190E00E944415E7CFBA
S11326F0912C212C312CFFE1F315D8F08B3279F099
S113270038F4803279F08332A1F4232D20611DC086
S11327108D3261F0803369F4232D216016C0832D3E
S11327208260382EE32DE4603E2E2AC0F32DF8603B
S11327301DC037FC2DC020ED280F2A3040F08E320A
S1132740B9F436FC81C1232D2064322E19C036FE23
S113275006C08AE0989E200D1124922E11C0EAE052
S11327602E9E200D1124222EF32DF0623F2E08C040
S11327708C3621F4832D8068382E02C0883641F4CB
S1132780F70193FD859193FF81917F018111B3CF6F
S1132790982F9F7D9554933028F40C5F1F4F9FE32F
S11327A099830DC0833631F0833771F0833509F096
S11327B059C021C0F801808189830E5F1F4F88248E
S11327C08394912C530113C02801F2E04F0E511C45
S11327D0F801A080B18036FE03C0692D70E002C00C
S11327E06FEF7FEFC5010E9439154C018201F32D73
S11327F0FF773F2E16C0280122E0420E511CF8013B
S1132800A080B18036FE03C0692D70E002C06FEF76
S11328107FEFC5010E942E154C01F32DF0683F2E69
S1132820820133FC1BC0822D90E088169906B0F417
S1132830B60180E290E00E9444152A94F4CFF50199
S113284037FC859137FE81915F01B60190E00E94CB
S1132850441521102A9421E0821A910881149104CC
S113286071F7E8C0843611F0893641F5F80137FE76
S113287007C060817181828193810C5F1F4F08C002
S113288060817181072E000C880B990B0E5F1F4F1E
S1132890F32DFF763F2E97FF09C090958095709594
S11328A061957F4F8F4F9F4FF0683F2E2AE030E0B5
S11328B0A3010E948015882E861845C0853731F4FF
S11328C0232D2F7EB22E2AE030E025C0932D997F50
S11328D0B92E8F36C1F018F4883579F0B5C0803739
S11328E019F0883721F0B0C0E92FE061BE2EB4FEA4
S11328F00DC0FB2DF460BF2E09C034FE0AC0292F81
S11329002660B22E06C028E030E005C020E130E0A9
S113291002C020E132E0F801B7FE07C06081718196
S1132920828193810C5F1F4F06C06081718180E0BA
S113293090E00E5F1F4FA3010E948015882E861819
S1132940FB2DFF773F2E36FE0DC0232D2E7FA22EAA
S1132950891458F434FE0BC032FC09C0832D8E7EDA
S1132960A82E05C0B82CA32C03C0B82C01C0B92CC8
S1132970A4FE0FC0FE01E80DF11D8081803321F417
S11329809A2D997EA92E09C0A2FE06C0B394B394D1
S113299004C08A2D867809F0B394A3FC11C0A0FE6C
S11329A006C0B21488F4280C922C9B180EC0B214E2
S11329B060F4B60180E290E00E944415B394F7CF2E
S11329C0B21418F42B1802C0982C212CA4FE10C0A9
S11329D0B60180E390E00E944415A2FE17C0A1FC5A
S11329E003C088E790E002C088E590E0B6010CC01F
S11329F08A2D867859F0A1FE02C08BE201C080E2E4
S1132A00A7FC8DE2B60190E00E944415891438F4C5
S1132A10B60180E390E00E9444159A94F7CF8A941B
S1132A20F301E80DF11D8081B60190E00E94441588
S1132A308110F5CF222009F442CEB60180E290E065
S1132A400E9444152A94F6CFF6018681978102C02C
S1132A508FEF9FEF2B96E2E10C94FA15FC010590A1
S1132A60615070400110D8F7809590958E0F9F1F8C
S1132A700895FC016150704001900110D8F78095D1
S1132A8090958E0F9F1F08950F931F93CF93DF93FD
S1132A90FB01238121FD03C08FEF9FEF2CC022FF98
S1132AA016C046815781248135814217530744F467
S1132AB0A081B1819D012F5F3F4F318320838C938F
S1132AC0268137812F5F3F4F3783268314C08B01C4
S1132AD0EC01FB010084F185E02D0995892BE1F6D9
S1132AE0D80116968D919C911797019617969C93F1
S1132AF08E931697CE01DF91CF911F910F91089578
S1132B00FA01AA27283051F1203181F1E8946F931A
S1132B106E7F6E5F7F4F8F4F9F4FAF4FB1E03ED0C0
S1132B20B4E03CD0670F781F891F9A1FA11D680F5E
S1132B30791F8A1F911DA11D6A0F711D811D911D91
S1132B40A11D20D009F468943F912AE0269F112406
S1132B503019305D3193DEF6CF010895462F47706A
S1132B60405D4193B3E00FD0C9F7F6CF462F4F70C5
S1132B70405D4A3318F0495D31FD4052419302D023
S1132B80A9F7EACFB4E0A6959795879577956795C9
S1132B90BA95C9F700976105710508959B01AC01C9
S1132BA00A2E06945795479537952795BA95C9F7F0
S1132BB0620F731F841F951FA01D08952F923F92CB
S1132BC04F925F926F927F928F929F92AF92BF9239
S1132BD0CF92DF92EF92FF920F931F93CF93DF93E5
S1132BE0CDB7DEB7CA1BDB0B0FB6F894DEBF0FBE42
S1132BF0CDBF09942A88398848885F846E847D848F
S1132C008C849B84AA84B984C884DF80EE80FD8090
S1132C100C811B81AA81B981CE0FD11D0FB6F89406
S1112C20DEBF0FBECDBFED010895F894FFCFC7
S1132C2E013F065B4F666D7D077F6F00000008084D
S1132C3E08800402044008800000040204400804D2
S1132C4E40022001101010100000022004400880E1
S1132C5E04400220044008044040022004400804BA
S1132C6E400220011010101000000000000008089F
S1132C7E0880040204400208800002010440088017
S1132C8E0402200110101220000002200440080447
S1132C9E404002200440080440400220044008043E
S1132CAE404002200110101000000000000000003F
S1132CBE0000000000000000000000000000000002
S1132CCE00000000000000000000000000000100F1
S1132CDE01000000000001000100000001000000DE
S1132CEE00000000010000000000010001000000CF
S1132CFE00000000010000000000010001000000BF
S1132D0E00000000010000000000010001000000AE
S1132D1E010000000100000000000100000001009D
S1132D2E010000000000010001000000000000008E
S1132D3E0000000000000000000000000000000081
S1132D4E0000000000000000000000000000000071
S1132D5E0000000000000000000000000000000061
S1132D6E0000000000000000000000000000000051
S1132D7E010001000100000000000000000000003E
S1132D8E010001000100010000000000000000002D
S1132D9E000000000100010000000000000000001F
S1132DAE010001000100010000000000000000000D
S1132DBE01000100010001000000000000000000FD
S1132DCE00000000010001000000000000000000EF
S1132DDE01000100010001000000000000000000DD
S1132DEE00000000000000000000000000000000D1
S1132DFE00000000000000000000000000000000C1
S1132E0E00000000000000000000000000000000B0
S1132E1E000001000100000000000000000000009E
S1132E2E010001000100010000000000000000008C
S1132E3E010000000000010000000000000000007E
S1132E4E000000000100010000000000000000006E
S1132E5E000001000100000000000000000000005E
S1132E6E010001000100000000000000000000004D
S1132E7E010001000100010000000000000000003C
S1132E8E0000000000000000000000000000000030
S1132E9E0000000000000000000000000000000020
S1132EAE0000000000000000000000000000000010
S1132EBE00000100010000000000000000000000FE
S1132ECE01000100010000000000000000000000ED
S1132EDE01000100010000000000000000000000DD
S1132EEE00000100010000000000000000000000CE
S1132EFE00000100010000000000000000000000BE
S1132F0E00000100010000000000000000000000AD
S1132F1E010001000100010000000000000000009B
S1132F2E000000000000000000000000010100008D
S1132F3E000300000000710EA90E00002C02CC024A
S1132F4E6C038C017FA47F00EF1DE900FFAA5500DE
S1132F5E0609060047616D652053636F72653A205A
S1132F6E25346400436F6D626F20436F756E743A3F
S1132F7E2025640000000210021002100202040850
S1132F8E04080408040408020802080208081010C1
S1132F9E1010101010100801080108010808041080
S1132FAE04100410040402080208020802020101BB
S1132FBE01010101010100000000000000000008F1
S1132FCE080880040204400208800002010440083C
S1132FDE8004022001000202020202020202040024
S1132FEE1020008001000408100040800002000838
S1132FFE10000000000000000000802040000204C9
S113300E001020008001000408100040800002001F
S113301E08102040000101000408002040000204B2
S113302E00102000800100040810004080000200FF
S113303E0810204000010440080440022001101032
S113304E101000000000000008080880040204406C
S113305E02088000020104400880040220010002DC
S113306E0202020202020204040404040404040818
S113307E080800000000000000080808800402048C
S113308E400880000004020440080440022001109D
S113309E1010100000022004400880044002200496
S11330AE400804404002200440080440022001105D
S11330BE101010000000000000080808800402042C
S11330CE400208800002010440088004022001101E
S11330DE1012200000022004400804404002200484
S11330EE40080440400220044008044040022001ED
S11330FE1010100000000043757272656E74204744
S113310E616D652053706565643A204E6F726D6112
S113311E6C0043757272656E742047616D65205341
S113312E706565643A204661737400437572726506
S113313E6E742047616D652053706565643A204551
S113314E787472656D65004572726F723A20496EBD
S113315E76616C69642047616D65205370656564A2
S113316E20746965720053656C65637465642054DC
S113317E7261636B3A204669726520736F6E6700E5
S113318E53656C656374656420547261636B3A2095
S113319E49636520736F6E670053656C6563746570
S11331AE6420547261636B3A2057617465722073A4
S11331BE6F6E67004D616E75616C206D6F64652076
S11331CE6163746976617465642E0047616D652070
S10B31DE506175736564000083
S9030000FC
